:020020009B3013
:14000000000001133D2F0728FE2C82013039002B1230113079
:20002400022F800B1930002F80030012022F3B28001715301F2F820B03131F2F840B05131D
:200044000613802F870B08130913802F8A0B0B130C13802F8D0B0E130F13802F900B102F77
:20006400910B402F920B1313102F940B402F950B1613102F970B402F980B1913102F9A0B95
:20008400402F9B0B1C131D131E131F132013211322132313241325132613271328130C2F5B
:1800A400A90B2A132B132C132D132E132F1330133113321333131130C0
:02002200853027
:2000BC00A90FAD0BAB0F800B81030012AA0B082F501FEA23501D0000501DAA1563006630DF
:2000DC00AD1162307A00B10F002B7930012B7D30022B81307A001D2FAB0B2C137A00052F86
:2000FC00AB0B2C137A00112FAB0B2C137A007900031F342F8301431C202F9101102F930131
:20011C00111D0D1F402F84010A2F9F01402F9C01602F9E01780099307A007200800F720034
:20013C00851BC530101BB930AF0F002ABB30AE0F0128AE0BAE0F052ABB30012FAF0BB10F07
:20015C000128B40B002F6000B50B032FB60B3713C938B10BBB302E132F13B00F0128B00B41
:16017C00B00F322AC43071385E383013851D7300800B73007B004E
:20019200B50F6B00002F6D00B80B002BD630002FB40C800B002FB50DD930B40F800BB50F08
:2001B200BA0B800FB90BB70F80294018E630002FB60C800B002FB70DE930B60F800BB70F9A
:2001D200C00B800FBF0BB90FBD0BBA0FBE0B0239BB0B800FBC0BB80F002BFE30002FBB0C5A
:1201F200800B002FBC0D80137A00BC0F800BBB0F7A00D1
:20020400411342130013C00F6B00002F6D00002A1A31BF15C016BD0FBF0CBE0FC00D401A9E
:20022400163140153F161A314212C20FC10B0431C10F800BBD0FBF0CBE0FC00D401826311D
:1C024400BF0FBD08C00FBE0940153F16800F8012002A1C31BE0F800BBD0F7A0095
:0202600000029A
:00000001FF
